:020000040800F2
:1000000068150020B9010008F1300008F12D000842
:10001000ED300008ED020008454300080000000034
:10002000000000000000000000000000A1310008F6
:10003000810300080000000061310008F931000868
:10004000D3010008D3010008D3010008D301000840
:10005000D3010008D3010008D3010008D301000830
:10006000D3010008D3010008D3010008D301000820
:10007000D3010008D3010008F102000801030008C1
:100080001103000821030008D3010008D301000870
:10009000D3010008D3010008D3010008D3010008F0
:1000A00071320008A1320008913200088132000844
:1000B000D3010008D3010008D3010008D3010008D0
:1000C000D3010008D3010008D3010008D3010008C0
:1000D000D301000845420008C5420008D3010008CA
:1000E000D3010008D3010008D301000800F002F892
:1000F00000F052F814A696E8000CB244B344DA4576
:1001000001D100F049F8BAE80F000FA696E83000D8
:10011000A5EB040504EB0607AAEB0704A7F101070A
:100120004FEA15154FEA3414A4F10104AC4201D38F
:1001300000F032F813F0010F18BFFB1A43F001036F
:1001400000F001F8DBE71847184C0000384C0000BD
:10015000103A24BF78C878C1FAD8520724BF30C8F3
:1001600030C144BF04680C60704700007047000055
:100170000023002400250026103A28BF78C1FBD8B0
:10018000520728BF30C148BF0B6070471FB500F051
:100190005DF81FBD10B510BD00F072F81146FFF7F5
:1001A000F5FF04F043FA00F090F803B4FFF7F2FF14
:1001B00003BC00F093F80000094880470948004755
:1001C000FEE7FEE7FEE7FEE7FEE7FEE7FEE7FEE707
:1001D000FEE7FEE704480549054A064B7047000064
:1001E0006D320008ED000008680F0020681500203F
:1001F00068110020681100204FF0000200B513467E
:1002000094469646203922BFA0E80C50A0E80C5036
:10021000B1F12001BFF4F7AF090728BFA0E80C50E7
:1002200048BF0CC05DF804EB890028BF40F8042BE0
:1002300008BF704748BF20F8022B11F0804F18BF4D
:1002400000F8012B704770477047704708487CB52D
:100250007844009007487844009C0546019004E0EB
:100260002046016808448047241DAC42F8D17CBD7B
:100270002C4B00002A4B0000004870471000002063
:100280007546FFF7F9FFAE4605006946534620F074
:100290000700854618B020B5FFF79CFFBDE8204059
:1002A0004FF000064FF000074FF000084FF0000B32
:1002B000AC46ACE8C009ACE8C009ACE8C009ACE8A1
:1002C000C00921F007018D46704710B50446AFF311
:1002D00000802046BDE81040FFF767BF01491820A5
:1002E000ABBEFEE72600020070470000FFE7FEE716
:1002F00080B540F62C50C2F2000000F017F980BD26
:1003000080B540F6E840C2F2000000F00FF980BD71
:1003100080B540F67050C2F2000000F007F980BDD1
:1003200080B540F6B450C2F2000000F0FFF880BD86
:1003300084B003900291019200930398C16B026C08
:10034000012090404860009803990968486003982C
:100350004068102809D1FFE701980399096888606F
:10036000029803990968C86008E00298039909682F
:100370008860019803990968C860FFE704B0704776
:100380007047000081B0EFF3108072B60090FFE775
:10039000FEE7000083B0019000208DF80300019873
:1003A00090F8210002280DD0FFE70199042088630E
:1003B000FFE70199002081F82000FFE701208DF878
:1003C0000B0021E001980168086820F00E00086029
:1003D00001980168086820F0010008600198C16B6D
:1003E000026C012090404860FFE70199012081F8EC
:1003F0002100FFE70199002081F82000FFE79DF828
:1004000003008DF80B00FFE79DF80B0003B0704769
:1004100080B588B0079000208DF81B00079890F8F1
:100420002100022807D0FFE70799042088630120F4
:100430008DF81B0076E007980168086820F00E0030
:10044000086007980168086820F0010008600798B4
:1004500000680821C4F20201884203D1FFE70120AD
:10046000059047E0079800681C21C4F20201884209
:1004700003D1FFE71020049039E00798006830218D
:10048000C4F20201884204D1FFE74FF48070039068
:100490002AE0079800684421C4F20201884204D18E
:1004A000FFE74FF4805002901BE007980068582146
:1004B000C4F20201884204D1FFE74FF4803001907A
:1004C0000CE0079801686C22C4F202024FF08070C1
:1004D000914208BF4FF480100190FFE7019802900D
:1004E000FFE702980390FFE703980490FFE7049862
:1004F0000590FFE705980421C4F2020108600799FE
:10050000012081F82100FFE70799002081F82000F1
:10051000FFE70798406B20B1FFE70798416B8847DA
:10052000FFE7FFE79DF81B0008B080BD80B58EB0E7
:100530000D900D98C06B00680C900D9800680068D5
:100540000B900C980D99096CC8404007002875D590
:10055000FFE79DF82C00400700286FD5FFE70D98B6
:10056000006800688006002807D4FFE70D9801683E
:10057000086820F004000860FFE70D980068082173
:10058000C4F20201884203D1FFE704200A9047E049
:100590000D9800681C21C4F20201884203D1FFE7D4
:1005A0004020099039E00D9800683021C4F2020122
:1005B000884204D1FFE74FF4806008902AE00D984C
:1005C00000684421C4F20201884204D1FFE74FF4DD
:1005D000804007901BE00D9800685821C4F202018A
:1005E000884204D1FFE74FF4802006900CE00D987C
:1005F00001686C22C4F202024FF08060914208BF91
:100600004FF480000690FFE706980790FFE70798F1
:100610000890FFE708980990FFE709980A90FFE71C
:100620000A980421C4F2020108600D98C06A20B142
:10063000FFE70D98C16A8847FFE7B8E00C980D996D
:10064000096CC8408007002840F18080FFE79DF8D2
:100650002C008007002879D5FFE70D980068006816
:10066000800600280BD4FFE70D980168086820F089
:100670000A0008600D99012081F82100FFE70D981C
:1006800000680821C4F20201884203D1FFE702207A
:10069000059047E00D9800681C21C4F202018842D1
:1006A00003D1FFE72020049039E00D980068302145
:1006B000C4F20201884204D1FFE74FF400700390B6
:1006C0002AE00D9800684421C4F20201884204D156
:1006D000FFE74FF4005002901BE00D98006858218E
:1006E000C4F20201884204D1FFE74FF400300190C8
:1006F0000CE00D9801686C22C4F202024FF0007009
:10070000914208BF4FF400100190FFE7019802905A
:10071000FFE702980390FFE703980490FFE704982F
:100720000590FFE705980421C4F202010860FFE785
:100730000D99002081F82000FFE70D98806A20B114
:10074000FFE70D98816A8847FFE72FE00C980D9925
:10075000096CC8400007002827D5FFE79DF82C004A
:100760000007002821D5FFE70D980168086820F0F0
:100770000E0008600D98C26B016C012000FA01F1B7
:1007800051600D9988630D9981F82100FFE70D995B
:10079000002081F82000FFE70D98006B20B1FFE7F3
:1007A0000D98016B8847FFE7FFE7FFE7FFE70EB013
:1007B00080BD000083B0019000200090019820B916
:1007C000FFE701208DF80B0047E0019908684FF61C
:1007D000F872CBF6FD7210444CF6CD42CCF6CC420A
:1007E000A0FB02026FF0030000EA92000864019986
:1007F0000020C4F20200C8630199022081F82100A0
:100800000198006800680090009843F6F0718843F2
:10081000009001994868D1F808C0CB680A6940EA9D
:100820000C00184310434A6910438A691043C96990
:1008300001430098084300900098019909680860F6
:10084000019900208863019A012182F82110019901
:1008500081F820008DF80B00FFE79DF80B0003B036
:100860007047000080B586B0049003910292019316
:1008700000208DF80300FFE7049890F8200001287D
:1008800004D1FFE702208DF817004CE00499012005
:1008900081F82000FFE7FFE7049890F82100012885
:1008A00032D1FFE70499022081F821000499002049
:1008B000886304980168086820F0010008600498C3
:1008C0000399029A019BFFF733FD0498C06A38B17F
:1008D000FFE704980168086840F00E0008600CE02B
:1008E00004980168086820F0040008600498016812
:1008F000086840F00A000860FFE70498016808688B
:1009000040F00100086009E0FFE70499002081F849
:100910002000FFE702208DF80300FFE79DF80300A9
:100920008DF81700FFE79DF8170006B080BD0000A6
:1009300090B00F900E9100200D900990FFE70E9857
:1009400000680D99C840002800F07F81FFE70D99ED
:10095000012088400C900E9800680C9908400B907C
:100960000B980C99884240F06C81FFE70E98406824
:100970000590002851D0FFE7059801283AD0FFE7FD
:10098000059802283FD0FFE7059803285FD0FFE7CE
:100990000598112832D0FFE70598122838D0FFE7D4
:1009A00005980021C1F21101884236D0FFE7059871
:1009B0000021C1F2120188422FD0FFE705980021E3
:1009C000C1F22101884228D0FFE705980021C1F239
:1009D0002201884221D0FFE705980021C1F23101B0
:1009E00088421AD0FFE705980021C1F232018842FF
:1009F00013D02FE00E98C06809902CE00E98C068C4
:100A00000430099027E00E98C0680830099022E071
:100A10000E98C0680C3009901DE00E98806818B9D7
:100A2000FFE70420099011E00E988068012806D1A4
:100A3000FFE7082009900C980F99086105E008204D
:100A400009900C980F994861FFE7FFE703E0002049
:100A5000099000E0FFE70B98FF2803D8FFE70F9805
:100A6000049003E00F9804300490FFE70498089086
:100A70000B98FF2804D8FFE70D988000039006E04C
:100A80000D996FF01F0000EB81000390FFE70398C2
:100A9000079008980068079A0F21914088430999A8
:100AA00091400843089908600E98C079C006002854
:100AB00040F1C680FFE7FFE741F21800C4F20200F0
:100AC000016841F001010160006800F0010006903A
:100AD0000698FFE70D9820F003000821C4F20101F9
:100AE00040580A900D9800F0030081000F2000FA92
:100AF00001F10A9888430A900F9840F60001C4F269
:100B00000101884203D1FFE70020029026E00F9800
:100B100040F60041C4F20101884203D1FFE7012001
:100B2000019018E00F9841F20001C4F201018842DF
:100B300003D1FFE7022000900AE00F9941F2004242
:100B4000C4F201020420914208BF03200090FFE795
:100B500000980190FFE701980290FFE702980D9935
:100B600001F00301890000FA01F10A9808430A9094
:100B70000A980D9921F003010822C4F2010288505D
:100B80000E988079C006002809D5FFE70B9A40F23D
:100B90000841C4F2010108681043086008E00B9A9C
:100BA00040F20841C4F20101086890430860FFE781
:100BB0000E9880798006002809D5FFE70B9A40F24D
:100BC0000C41C4F2010108681043086008E00B9A68
:100BD00040F20C41C4F20101086890430860FFE74D
:100BE0000E9880798007002809D5FFE70B9A40F21C
:100BF0000441C4F2010108681043086008E00B9A40
:100C000040F20441C4F20101086890430860FFE724
:100C10000E988079C00748B1FFE70B9A40F2004177
:100C2000C4F2010108681043086008E00B9A40F222
:100C30000041C4F20101086890430860FFE7FFE744
:100C4000FFE70D9801300D9079E610B07047000075
:100C500040F66070C2F200000068704740F2040085
:100C6000C2F20000027840F66071C2F2000108682A
:100C7000104408607047000080B542F20001C4F2E1
:100C80000201086840F010000860032000F096F8A8
:100C90000F2000F005F800F03BF8002080BD0000B8
:100CA00080B582B0009040F20000C2F200000068FF
:100CB00040F20401C2F200010A784FF47A71B1FBEC
:100CC000F2F1B0FBF1F000F073FD20B1FFE701207D
:100CD0008DF8070018E000980F280DD8FFE700995D
:100CE0004FF0FF30002200F04FF8009840F208016A
:100CF000C2F20001086003E001208DF8070003E064
:100D000000208DF80700FFE79DF8070002B080BDC6
:100D100083B0FFE741F21800C4F20200016841F01D
:100D200001010160006800F0010002900298FFE7F5
:100D3000FFE741F21C00C4F20200016841F080515B
:100D40000160006800F0805001900198FFE7FFE724
:100D50000421C4F2010108680090009820F0E060CE
:100D60000090009840F00070009000980860FFE745
:100D700003B0704780B582B08DF807009DF9070079
:100D800003F0E8FB02B080BD80B586B08DF8170097
:100D9000049103920020029003F0F4FB02909DF96D
:100DA0001700019002980499039A02F0A3F90146F2
:100DB000019803F0EFFB06B080BD000080B582B063
:100DC0000190019803F008FC02B080BD80B584B0AA
:100DD00002900191029820B9FFE701208DF80F00E1
:100DE0001BE1019842F20001C4F20201096801F01E
:100DF0000701884216D9FFE742F20000C4F2020060
:100E0000016821F00701019A11430160006800F0B8
:100E100007000199884204D0FFE701208DF80F00F8
:100E2000FBE0FFE702980078800700282AD5FFE75B
:100E3000029800784007002809D5FFE741F2040135
:100E4000C4F20201086840F4E0600860FFE702981D
:100E500000780007002809D5FFE741F20401C4F239
:100E60000201086840F460500860FFE741F20401A5
:100E7000C4F20201086820F0F000029A9268104360
:100E80000860FFE702980078C007002860D0FFE7FD
:100E90000298406801280ED1FFE741F20000C4F239
:100EA000020000688003002804D4FFE701208DF8C9
:100EB0000F00B2E021E00298406802280ED1FFE75F
:100EC00041F20000C4F2020000688001002804D44E
:100ED000FFE701208DF80F009FE00DE041F20000D8
:100EE000C4F2020000688007002804D4FFE7012054
:100EF0008DF80F0091E0FFE7FFE741F20401C4F233
:100F00000201086820F00300029A5268104308604A
:100F1000FFF79EFE0090FFE741F20400C4F20200DA
:100F2000006800F00C0002994968B0EB810F0ED008
:100F3000FFE7FFF78DFE0099401A41F289318842A0
:100F400004D3FFE703208DF80F0066E0E4E7FFE736
:100F5000019842F20001C4F20201096801F00701A0
:100F6000884216D2FFE742F20000C4F20200016894
:100F700021F00701019A11430160006800F00700A9
:100F80000199884204D0FFE701208DF80F0044E06A
:100F9000FFE702980078400700280CD5FFE741F2F0
:100FA0000401C4F20201086820F4E060029AD268E9
:100FB00010430860FFE702980078000700280DD56D
:100FC000FFE741F20401C4F20201086820F4605016
:100FD000029A126940EAC2000860FFE700F04CF88C
:100FE00041F20401C4F202010968C9B20A0944F6D7
:100FF0003651C0F60001895CC84040F20001C2F2DF
:101000000001086040F20800C2F200000068FFF72B
:1010100047FE00208DF80F00FFE79DF80F0004B099
:1010200080BD000040F20000C2F20000006870477E
:1010300080B5FFF7F7FF41F20401C4F2020109682D
:10104000C1F3022244F64651C0F60001895CC84053
:1010500080BD000080B5FFF7E5FF41F20401C4F256
:1010600002010968C1F3C22244F64651C0F60001EC
:10107000895CC84080BD000086B0002005900490C7
:1010800003900290019041F20400C4F20200006853
:101090000590059800F00C000146009100283FD013
:1010A000FFE70098042804D0FFE70098082806D03E
:1010B00037E041F20020C0F27A00019037E0059855
:1010C000C0F3834144F64E50C0F60000405C0290ED
:1010D0009DF81600C007C0B1FFE741F20400C4F25A
:1010E00002000068C0F3404144F65E50C0F60000C4
:1010F000405C0490029841F20021C0F27A0148431A
:101100000499B0FBF1F0039007E0029840F600115B
:10111000C0F23D0148430390FFE70398019006E0C9
:10112000FFE741F20020C0F27A000190FFE701984A
:1011300006B0704780B586B00490049820B9FFE7E8
:1011400001208DF817002EE304980078C0070028CE
:1011500000F0AE80FFE741F20400C4F20200006834
:1011600000F00C00042813D0FFE741F20400C4F2A1
:101170000200006800F00C0008281BD1FFE741F2D4
:101180000400C4F202000068C003002812D5FFE783
:1011900041F20000C4F2020000688003002808D574
:1011A000FFE70498406820B9FFE701208DF8170099
:1011B000F9E27CE0FFE704984068B0F5803F09D190
:1011C000FFE741F20001C4F20201086840F48030F8
:1011D000086032E00498406868B9FFE741F2000116
:1011E000C4F20201086820F480300860086820F426
:1011F0008020086020E004984068B0F5A02F0DD151
:10120000FFE741F20001C4F20201086840F48020C7
:101210000860086840F4803008600CE041F200018A
:10122000C4F20201086820F480300860086820F4E5
:1012300080200860FFE7FFE7FFE7FFE704984068CA
:10124000D0B1FFE7FFF704FD0390FFE741F2000094
:10125000C4F202000068800300280CD4FFE7FFF707
:10126000F7FC0399401A652804D3FFE703208DF8A3
:10127000170098E2EAE719E0FFF7EAFC0390FFE7BE
:1012800041F20000C4F202000068800300280CD57F
:10129000FFE7FFF7DDFC0399401A652804D3FFE759
:1012A00003208DF817007EE2EAE7FFE7FFE7FFE79C
:1012B000049800788007002840F18D80FFE741F214
:1012C0000400C4F20200006810F00C0F13D0FFE716
:1012D00041F20400C4F20200006800F00C0008288B
:1012E00029D1FFE741F20400C4F202000068C00304
:1012F000002820D4FFE741F20000C4F20200006899
:101300008007002809D5FFE704980069012804D068
:10131000FFE701208DF8170045E241F20001C4F219
:101320000201086820F0F800049A526940EAC200FD
:101330000860FFE74EE00498006958B3FFE700211A
:10134000C4F2422101200860FFF782FC0390FFE70E
:1013500041F20000C4F202000068800700280CD4AB
:10136000FFE7FFF775FC0399401A032804D3FFE752
:1013700003208DF8170016E2EAE741F20001C4F2FB
:101380000201086820F0F800049A526940EAC2009D
:1013900008601EE00021C4F2422100200860FFF72F
:1013A00057FC0390FFE741F20000C4F2020000681E
:1013B000800700280CD5FFE7FFF74AFC0399401A85
:1013C000032804D3FFE703208DF81700EBE1EAE7D9
:1013D000FFE7FFE7FFE7049800780007002848D5FB
:1013E000FFE70498806918B3FFE740F28041C4F238
:1013F000422101200860FFF72BFC0390FFE741F238
:101400002400C4F202000068800700280CD4FFE723
:10141000FFF71EFC0399401A032804D3FFE70320BB
:101420008DF81700BFE1EAE7012001F09BFE1FE005
:1014300040F28041C4F2422100200860FFF708FC1E
:101440000390FFE741F22400C4F202000068800725
:1014500000280CD5FFE7FFF7FBFB0399401A032890
:1014600004D3FFE703208DF817009CE1EAE7FFE7CC
:10147000FFE7049800784007002840F1D880FFE794
:1014800000208DF8070041F21C00C4F20200006841
:10149000C000002813D4FFE7FFE741F21C00C4F2AC
:1014A0000200016841F080510160006800F0805046
:1014B00000900098FFE701208DF80700FFE747F252
:1014C0000000C4F200000068C005002822D4FFE735
:1014D00047F20001C4F20001086840F4807008601F
:1014E000FFF7B6FB0390FFE747F20000C4F20000ED
:1014F0000068C00500280CD4FFE7FFF7A9FB03999B
:10150000401A652804D3FFE703208DF817004AE14D
:10151000EAE7FFE7FFE70498C068012809D1FFE781
:1015200041F22001C4F20201086840F001000860A5
:1015300031E00498C06868B9FFE741F22001C4F2C5
:101540000201086820F001000860086820F004002B
:1015500008601FE00498C06805280DD1FFE741F23C
:101560002001C4F20201086840F004000860086825
:1015700040F0010008600CE041F22001C4F20201D9
:10158000086820F001000860086820F00400086086
:10159000FFE7FFE7FFE7FFE70498C068E0B1FFE778
:1015A000FFF756FB0390FFE741F22000C4F2020070
:1015B0000068800700280ED4FFE7FFF749FB039976
:1015C000401A41F28931884204D3FFE703208DF8A5
:1015D0001700E8E0E8E71BE0FFF73AFB0390FFE7BE
:1015E00041F22000C4F202000068800700280ED5F6
:1015F000FFE7FFF72DFB0399401A41F2893188423A
:1016000004D3FFE703208DF81700CCE0E8E7FFE7FD
:101610009DF80700012809D1FFE741F21C01C4F23F
:101620000201086820F080500860FFE7FFE7049897
:10163000C069002800F0B380FFE741F20400C4F263
:101640000200006800F00C00082800F08280FFE72C
:101650000498C06902285CD1FFE76021C4F24221EE
:1016600000200860FFF7F4FA0390FFE741F2000062
:10167000C4F202000068800100280CD5FFE7FFF7E4
:10168000E7FA0399401A032804D3FFE703208DF8F3
:10169000170088E0EAE70498006AB0F5803F0CD1B3
:1016A000FFE741F20401C4F20201086820F40030AF
:1016B000049A926810430860FFE741F20401C4F203
:1016C0000201086820F47410049B1A6A5B6A1A43CA
:1016D000104308606021C4F2422101200860FFF736
:1016E000B7FA0390FFE741F20000C4F2020000687D
:1016F000800100280CD4FFE7FFF7AAFA0399401AEB
:10170000032804D3FFE703208DF817004BE0EAE736
:101710001EE06021C4F2422100200860FFF798FA21
:101720000390FFE741F20000C4F20200006880016C
:1017300000280CD5FFE7FFF78BFA0399401A03281E
:1017400004D3FFE703208DF817002CE0EAE7FFE75A
:1017500024E00498C069012804D1FFE701208DF836
:10176000170020E041F20400C4F202000068029079
:10177000029800F480300499096A884208D1FFE792
:10178000029800F470100499496A884204D0FFE777
:1017900001208DF8170006E0FFE7FFE7FFE70020D4
:1017A0008DF81700FFE79DF8170006B080BD000018
:1017B00080B582B00190019801F0F4FC02B080BDC8
:1017C00081B0009001B0704781B0009001B07047C7
:1017D00085B003900291FFE7039890F83C00012840
:1017E00004D1FFE702208DF813005BE0039901208C
:1017F00081F83C00FFE7FFE70399022081F83D00F4
:101800000398006840680190039800688068009021
:10181000019820F070000190029801680198084337
:10182000019001980399096848600398006842F69E
:101830000041C4F20101884218D0FFE70398006814
:10184000B0F1804F12D0FFE70398006840F20041EA
:10185000C4F20001884209D0FFE70398006840F60F
:101860000001C4F2000188420ED1FFE7009820F089
:10187000800000900298416800980843009000980A
:10188000039909688860FFE70399012081F83D000A
:10189000FFE70399002081F83C00FFE700208DF866
:1018A0001300FFE79DF8130005B0704780B582B0C4
:1018B0000090009820B9FFE701208DF807003FE075
:1018C000009890F83D0040B9FFE70099002081F8AA
:1018D0003C00009800F038F8FFE70099022081F8FA
:1018E0003D00009951F8040B01F0E2FC0099012041
:1018F00081F84600FFE70099012081F83E00009939
:1019000081F83F00009981F84000009981F841007A
:10191000FFE7FFE70099012081F84200009981F874
:101920004300009981F84400009981F84500FFE7E1
:101930000099012081F83D0000208DF80700FFE7A5
:101940009DF8070002B080BD80B588B00790079869
:10195000006842F60041C4F20101884235D1FFE738
:10196000FFE741F21800C4F20200016841F400618F
:101970000160006800F4006006900698FFE71820F8
:101980000090002203921146FFF7FEF90098FFF73E
:10199000F1F9039A192001901146FFF7F5F9019822
:1019A000FFF7E8F9039A1A2002901146FFF7ECF9C5
:1019B0000298FFF7DFF9039A1B2004901146FFF706
:1019C000E3F90498FFF7D6F919E00798006840F2A8
:1019D0000041C4F20001884210D1FFE7FFE741F265
:1019E0001C00C4F20200016841F0020101600068BD
:1019F00000F0020005900598FFE7FFE7FFE708B059
:101A000080BD000083B00190019890F83D0001284E
:101A100004D0FFE701208DF80B0047E00199022078
:101A200081F83D0001980168C86840F00100C86075
:101A30000198006842F60041C4F20101884218D0C2
:101A4000FFE701980068B0F1804F12D0FFE70198DE
:101A5000006840F20041C4F20001884209D0FFE76B
:101A60000198006840F60001C4F20001884212D1DA
:101A7000FFE701980068806800F007000090009878
:101A8000062807D0FFE701980168086840F00100C8
:101A90000860FFE706E001980168086840F001006F
:101AA0000860FFE700208DF80B00FFE79DF80B00B2
:101AB00003B0704780B586B00490039100208DF884
:101AC0000B00FFE7049890F83C00012804D1FFE7E1
:101AD00002208DF81700ABE00499012081F83C004A
:101AE000FFE7FFE70499022081F83D0004980068B1
:101AF00080680190019820F077000190019820F40F
:101B00007F400190019804990968886003980068F3
:101B10000090002872D0FFE7009810286ED0FFE7F1
:101B2000009820286AD0FFE70098302866D0FFE7A9
:101B30000098402855D0FFE70098502837D0FFE79D
:101B40000098602840D0FFE7009870280BD0FFE78E
:101B50000098B0F5805F05D0FFE70098B0F5005F12
:101B600016D052E055E004980068039B5A689968C3
:101B7000DB6801F03DFC04980068806801900198E2
:101B800040F077000190019804990968886040E06E
:101B900004980068039B5A689968DB6801F028FC88
:101BA00004980168886840F48040886031E00498B7
:101BB0000068039A5168D26801F024FE0498006816
:101BC000502101F02FFC24E004980068039A51682A
:101BD000D26801F03FFE04980068602101F022FC09
:101BE00017E004980068039A5168D26801F00AFE71
:101BF00004980068402101F015FC0AE00498006890
:101C00000399096801F00EFC03E001208DF80B0038
:101C1000FFE70499012081F83D00FFE704990020C7
:101C200081F83C00FFE79DF80B008DF81700FFE7F7
:101C30009DF8170006B080BD81B0009001B07047DC
:101C400080B584B0039003980068C0680290039840
:101C50000068006901909DF804008007002824D5E1
:101C6000FFE79DF80800800700281DD5FFE70398CF
:101C700001686FF00200086103990120087703985A
:101C800000688069800720B1FFE70398FFF7D4FF61
:101C900006E0039800F012F9039800F007FAFFE756
:101CA000039900200877FFE7FFE79DF8040040074D
:101CB000002825D5FFE79DF80800400700281ED51D
:101CC000FFE7039801686FF00400086103990220A0
:101CD000087703980068806910F4407F04D0FFE71C
:101CE0000398FFF7A9FF06E0039800F0E7F80398D0
:101CF00000F0DCF9FFE7039900200877FFE7FFE732
:101D00009DF804000007002824D5FFE79DF808008F
:101D1000000700281DD5FFE7039801686FF0080051
:101D2000086103990420087703980068C069800758
:101D300020B1FFE70398FFF77FFF06E0039800F06C
:101D4000BDF8039800F0B2F9FFE703990020087787
:101D5000FFE7FFE79DF80400C006002825D5FFE750
:101D60009DF80800C00600281ED5FFE7039801680B
:101D70006FF0100008610399082008770398006845
:101D8000C06910F4407F04D0FFE70398FFF754FFC9
:101D900006E0039800F092F8039800F087F9FFE757
:101DA000039900200877FFE7FFE79DF80400C007CC
:101DB00078B1FFE79DF80800C00748B1FFE7039836
:101DC00001686FF001000861039800F023FAFFE753
:101DD000FFE79DF804000006002810D5FFE79DF8F6
:101DE00008000006002809D5FFE7039801686FF096
:101DF000800008610398FFF7E3FCFFE7FFE79DF829
:101E000004004006002810D5FFE79DF808004006B2
:101E1000002809D5FFE7039801686FF040000861CA
:101E2000039800F03DFAFFE7FFE79DF80400800605
:101E3000002810D5FFE79DF808008006002809D586
:101E4000FFE7039801686FF0200008610398FFF72F
:101E5000BBFCFFE7FFE704B080BD000080B586B0A3
:101E6000059000200490039002900190059800686E
:101E700040F20041C4F2000188421CD1FFE7FFE7B5
:101E800041F21800C4F20200016841F0040101604F
:101E9000006800F0040000900098FFE740200190E7
:101EA00002200290049040F60000C4F2010001A953
:101EB000FEF73EFDFFE706B080BD000081B0009058
:101EC00001B0704780B586B0049003910292002063
:101ED0008DF80700FFE7049890F83C00012804D132
:101EE000FFE702208DF8170089E00499012081F8AE
:101EF0003C00FFE7FFE7029800900C2800F270809A
:101F00000099DFE801F0076D6D6D206D6D6D3A6D24
:101F10006D6D530004980068039901F0E7FA049886
:101F20000168886940F00800886104980168886940
:101F300020F00400886103980269049801688869A8
:101F40001043886150E004980068039901F036FB63
:101F500004980168886940F4006088610498016809
:101F6000886920F480608861039802690498016898
:101F7000886940EA0220886136E004980068039985
:101F800001F088FB04980168C86940F00800C86146
:101F900004980168C86920F00400C86103980269C8
:101FA00004980168C8691043C8611DE0049800687E
:101FB000039901F0DBFB04980168C86940F40060F4
:101FC000C86104980168C86920F48060C8610398FA
:101FD000026904980168C86940EA0220C86103E008
:101FE00001208DF80700FFE7FFE70499002081F842
:101FF0003C00FFE79DF807008DF81700FFE79DF80C
:10200000170006B080BD000080B582B00090009837
:1020100020B9FFE701208DF807003FE0009890F815
:102020003D0040B9FFE70099002081F83C0000988E
:1020300000F038F8FFE70099022081F83D00009990
:1020400051F8040B01F034F90099012081F84600A1
:10205000FFE70099012081F83E00009981F83F00D8
:10206000009981F84000009981F84100FFE7FFE7FF
:102070000099012081F84200009981F843000099FD
:1020800081F84400009981F84500FFE7009901209C
:1020900081F83D0000208DF80700FFE79DF807005C
:1020A00002B080BD81B0009001B0704781B0009057
:1020B00001B0704780B58AB008900791079828B999
:1020C000FFE7089890F83E0005901CE00798042868
:1020D00005D1FFE7089890F83F00049010E00798BA
:1020E000082805D1FFE7089890F84000039004E025
:1020F000089890F841000390FFE703980490FFE7E9
:1021000004980590FFE70598012804D0FFE7012017
:102110008DF827007AE0079828B9FFE70899022090
:1021200081F83E001EE00798042806D1FFE70899D1
:10213000022081F83F00029012E00798082806D19B
:10214000FFE70899022081F84000019005E0089916
:10215000022081F841000190FFE701980290FFE71B
:102160000298FFE7089800680799012201F024F916
:102170000898006842F60041C4F20101884207D184
:10218000FFE708980168486C40F400404864FFE7A6
:102190000898006842F60041C4F20101884218D054
:1021A000FFE708980068B0F1804F12D0FFE7089869
:1021B000006840F20041C4F20001884209D0FFE704
:1021C0000898006840F60001C4F20001884212D16C
:1021D000FFE708980068806800F0070006900698FE
:1021E000062807D0FFE708980168086840F001005A
:1021F0000860FFE706E008980168086840F0010001
:102200000860FFE700208DF82700FFE79DF8270012
:102210000AB080BD80B582B001900198006842F696
:102220000041C4F20101884207D1FFE740F28C006F
:10223000C2F20000406880472FE001980068B0F1CA
:10224000804F07D1FFE740F29400C2F200004068DF
:10225000804721E00198006840F20041C4F200018B
:10226000884207D1FFE740F29C00C2F200004068BC
:10227000804710E00198006840F60001C4F20001B8
:10228000884207D1FFE740F2A400C2F20000406894
:102290008047FFE7FFE7FFE7FFE702B080BD0000F0
:1022A00081B0009001B0704780B586B00490039172
:1022B000ADF80A20049890F84200202848D1FFE7A2
:1022C000039820B1FFE7BDF80A0020B9FFE701201D
:1022D0008DF8170040E0049901200863049900205C
:1022E000486304980399BDF80A2001F0A9FE8DF80F
:1022F00009000498006B012821D1FFE7FFE70020C7
:102300000190049800680068019004980068406893
:1023100001900198FFE7FFE7FFE70498006850E8A5
:10232000030F40F010000090FFE700990498026846
:1023300042E803100028F0D1FFE7FFE703E00120A7
:102340008DF80900FFE79DF809008DF8170003E0FC
:1023500002208DF81700FFE79DF8170006B080BD3A
:1023600080B588B00790ADF81A100798006843F65A
:102370000001C4F20101884219D1FFE7BDF81A102B
:1023800040F2AC00C2F200000490A0F80814D0F8AB
:102390000C24BDF81A1000F5017005909047049ABE
:1023A00005990798B2F80424FFF77EFF45E00798E7
:1023B000006844F20041C4F20001884219D1FFE7ED
:1023C000BDF81A1040F2BC40C2F200000290A0F822
:1023D0000814D0F80C24BDF81A1000F50170039011
:1023E0009047029A03990798B2F80424FFF75CFF1C
:1023F00022E00798006844F60001C4F20001884218
:1024000019D1FFE7BDF81A1040F6CC00C2F2000067
:102410000090A0F80814D0F80C24BDF81A1000F5AC
:10242000017001909047009A01990798B2F804242E
:10243000FFF73AFFFFE7FFE7FFE708B080BD0000C6
:1024400080B584B003900020029003980068406932
:10245000C0B2C0090290039890F84100212823D10E
:10246000FFE7029800B3FFE7FFE7FFE70398006884
:1024700050E8050F20F080000190FFE701990398D4
:10248000026842E805100028F0D1FFE7FFE7039853
:10249000806B28B1FFE70398806BFDF77BFFFFE7B8
:1024A000039801F021FCFFE7039800684069C0F33E
:1024B00080100290039890F84200222823D1FFE771
:1024C000029800B3FFE7FFE7FFE70398006850E8D2
:1024D000050F20F040000090FFE700990398026884
:1024E00042E805100028F0D1FFE7FFE70398C06B32
:1024F00028B1FFE70398C06BFDF74CFFFFE7039897
:1025000001F094FBFFE7002004B080BD81B0009093
:1025100001B0704780B592B01190119800680068C2
:10252000109011980068C0680F9011980068406979
:102530000E9000200D900C90109800F00F000D9060
:102540000D9888B9FFE79DF84000800600280AD55D
:10255000FFE79DF83C008006002804D5FFE71198AE
:1025600001F05AFCE9E1FFE70D98002800F0C28075
:10257000FFE79DF83800C00738B9FFE7BDF83C0019
:1025800010F4907F00F0B680FFE79DF84000C00790
:1025900058B1FFE79DF83D00C00730B1FFE7119942
:1025A000486C40F001004864FFE79DF84000400798
:1025B00000280BD5FFE79DF83800C00730B1FFE7D2
:1025C0001199486C40F002004864FFE79DF8400014
:1025D000800700280BD5FFE79DF83800C00730B111
:1025E000FFE71199486C40F004004864FFE79DF84C
:1025F00040000007002811D5FFE79DF83C00800649
:10260000002805D4FFE79DF83800C00730B1FFE788
:102610001199486C40F008004864FFE71198406C3D
:10262000002866D0FFE79DF84000800600280AD504
:10263000FFE79DF83C008006002804D5FFE71198CD
:1026400001F0EAFBFFE7119800684069C0F38010D1
:102650000C901198406C0007002804D4FFE70C98F8
:1026600000283ED0FFE7119801F0E0FA11980068C9
:102670004069400600282FD5FFE7FFE7FFE71198E4
:10268000006850E8050F20F040000B90FFE70B9921
:102690001198026842E805100028F0D1FFE7FFE733
:1026A0001198C06B98B1FFE71198C16B43F6692090
:1026B000C0F6000048631198C06BFDF7A9FE28B171
:1026C000FFE71198C06B416B8847FFE703E0119863
:1026D000FFF71CFFFFE703E01198FFF717FFFFE785
:1026E00006E01198FFF712FF119900204864FFE7F8
:1026F000FFE722E11198006B012840F0FE80FFE720
:102700009DF84000C006002840F1F780FFE79DF8E3
:102710003C00C006002840F1F080FFE7FFE7002002
:102720000A901198006800680A9011980068406843
:102730000A900A98FFE7119800684069400600284F
:1027400040F18180FFE71198C06B00684068ADF8E8
:102750002600BDF82600002874D0FFE7BDF826004B
:102760001199898D88426DDAFFE7BDF8260011992D
:10277000C8851198C06B8069202858D0FFE7FFE713
:10278000FFE71198006850E8030F20F4807008906C
:10279000FFE708991198026842E803100028F0D179
:1027A000FFE7FFE7FFE7FFE71198006850E8050F34
:1027B00020F001000790FFE707991198026842E8AE
:1027C00005100028F0D1FFE7FFE7FFE7FFE71198CA
:1027D000006850E8050F20F040000690FFE70699DA
:1027E0001198026842E805100028F0D1FFE7FFE7E2
:1027F0001199202081F84200119900200863FFE719
:10280000FFE71198006850E8030F20F010000590D2
:10281000FFE705991198026842E803100028F0D1FB
:10282000FFE7FFE71198C06BFDF7B4FDFFE71199D3
:10283000022048631198818DC28D891A89B2FFF7F1
:102840008FFDFFE779E01199888DC98D401AADF8A9
:1028500012001198C08D00284ED0FFE7BDF812007D
:10286000002849D0FFE7FFE7FFE71198006850E82C
:10287000030F20F490700390FFE70399119802680A
:1028800042E803100028F0D1FFE7FFE7FFE7FFE78A
:102890001198006850E8050F20F001000290FFE752
:1028A00002991198026842E805100028F0D1FFE76C
:1028B000FFE71199202081F8420011990020086358
:1028C000FFE7FFE71198006850E8030F20F01000C1
:1028D0000190FFE701991198026842E8031000286F
:1028E000F0D1FFE7FFE71199022048631198BDF886
:1028F0001210FFF735FDFFE71FE09DF840000006CE
:1029000000280AD5FFE79DF83C000006002804D502
:10291000FFE7119801F04CFC0FE09DF840004006E5
:1029200000280AD5FFE79DF83C004006002804D5A2
:10293000FFE7119801F0C4F9FFE712B080BD000075
:1029400080B582B00090009820B9FFE701208DF893
:10295000070040E00098806908B1FFE700E0FFE76A
:10296000009890F8410040B9FFE70099002081F8F5
:102970004000009800F034F8FFE70099242081F827
:10298000410000980168C86820F40050C8600098B1
:1029900001F0F8FA00980168086920F49040086195
:1029A00000980168486920F02A0048610098016891
:1029B000C86840F40050C860009900204864009A3C
:1029C000202182F84110009A82F842100099486351
:1029D0008DF80700FFE79DF8070002B080BD0000FA
:1029E00080B59AB019900020189017901690159005
:1029F0001998006843F60001C4F20101884240F0D2
:102A00009980FFE7FFE741F21800C4F20200016875
:102A100041F480410160006800F4804014901498F3
:102A2000FFE7FFE741F21800C4F20200016841F03D
:102A300008010160006800F0080013901398FFE798
:102A400040201590022016900320189040F6004078
:102A5000C4F201000C9015A90D91FDF769FF0C98C7
:102A60000D9980221592002216921792FDF760FFB1
:102A7000FFE70421C4F2010108681290129840F0A7
:102A8000E0601290129840F00400129012980860D2
:102A9000FFE740F6E840C2F200000B905821C4F274
:102AA000020101600021416081608022C2600161F9
:102AB00041618161C161FDF77DFE18B1FFE7FDF75E
:102AC00061FCFFE7FFE7199840F6E841C2F2000118
:102AD000C16319984862FFE740F62C50C2F200002B
:102AE0000A904421C4F202010160102141600021DA
:102AF00081608022C260016141618161C161FDF735
:102B000059FE18B1FFE7FDF73DFCFFE7FFE7199815
:102B100040F62C51C2F20001816319984862FFE728
:102B20002520099000221146FEF72EF90998FEF79C
:102B300021F9D5E01998006844F20041C4F200017F
:102B4000884240F08980FFE7FFE741F21C00C4F2B1
:102B50000200016841F400310160006800F40030B7
:102B600011901198FFE7FFE741F21800C4F202004C
:102B7000016841F004010160006800F00400109059
:102B80001098FFE70420159002201690032018905B
:102B900040F60000C4F20100059015A90691FDF76A
:102BA000C7FE0598069908221592002207921692F0
:102BB0001792FDF7BDFE079940F67050C2F2000073
:102BC00008906C22C4F2020202604160816080229F
:102BD000C260016141618161C161FDF7EBFD18B126
:102BE000FFE7FDF7CFFBFFE7FFE7199840F67051CD
:102BF000C2F20001C16319984862FFE740F6B45081
:102C0000C2F2000004908021C4F202010160102190
:102C10004160002181608022C26001614161816167
:102C2000C161FDF7C7FD18B1FFE7FDF7ABFBFFE79B
:102C3000FFE7199840F6B451C2F200018163199878
:102C40004862FFE72620039000221146FEF79CF819
:102C50000398FEF78FF842E01998006844F60001E7
:102C6000C4F20001884239D1FFE7FFE741F21C00BE
:102C7000C4F20200016841F480210160006800F4A0
:102C800080200F900F98FFE7FFE741F21800C4F291
:102C90000200016841F008010160006800F00800CE
:102CA0000E900E98FFE74FF480601590022016906A
:102CB0000320189040F60040C4F20100019015A9CD
:102CC0000291FDF735FE019802994FF400621592CA
:102CD000002216921792FDF72BFEFFE7FFE7FFE7B2
:102CE0001AB080BD80B584B002900191ADF8022089
:102CF000029890F84200202817D1FFE7019820B1F0
:102D0000FFE7BDF8020020B9FFE701208DF80F00B2
:102D10000FE002990020086302980199BDF8022093
:102D200001F08EF98DF80F0003E002208DF80F00FE
:102D3000FFE79DF80F0004B080BD000080B584B0AF
:102D400002900191ADF80220029890F842002028EC
:102D500017D1FFE7019820B1FFE7BDF8020020B9C5
:102D6000FFE701208DF80F000FE0029900200863B3
:102D700002980199BDF8022001F0E8F98DF80F00E2
:102D800003E002208DF80F00FFE79DF80F0004B06C
:102D900080BD000080B584B003900398006844F2C1
:102DA0000041C4F20001884218D1FFE740F2BC4064
:102DB000C2F200000190D0F80C24B0F8041400F521
:102DC00001700290904701980299B0F8042440F6EF
:102DD000D060C2F20000FFF7B1FFFFE704B080BD92
:102DE00081B0009001B0704781B0009001B0704791
:102DF000FFE7FEE780B586B0FFE741F21400C4F2BA
:102E00000200016841F001010160006800F001006A
:102E100005900598FFE70E200090002203921146CE
:102E2000FDF7B2FF0098FDF7A5FF039A0F20019070
:102E30001146FDF7A9FF0198FDF79CFF039A1020AA
:102E400002901146FDF7A0FF0298FDF793FF039A49
:102E5000112004901146FDF797FF0498FDF78AFFB3
:102E600006B080BD83B0FFE741F21800C4F2020053
:102E7000016841F020010160006800F0200002902C
:102E80000298FFE7FFE741F21800C4F20200016870
:102E900041F004010160006800F004000190019815
:102EA000FFE7FFE741F21800C4F20200016841F0B9
:102EB00008010160006800F0080000900098FFE73A
:102EC00003B0704780B588B000210091079106914A
:102ED000059104910391029140F6F850C2F200006E
:102EE000019042F60042C4F20102026047224260B1
:102EF000816040F2E732C2600161416180218161FD
:102F0000FEF7D4FC18B1FFE7FDF73CFAFFE74FF4FA
:102F10008050049040F6F850C2F2000004A9FEF779
:102F2000C9FD18B1FFE7FDF72DFAFFE70020029079
:102F3000039040F6F850C2F2000002A9FEF748FCE8
:102F400018B1FFE7FDF71EFAFFE708B080BD0000EB
:102F500080B58EB0002100910D910C910B910A91DA
:102F600009910891079106910591049103910291AD
:102F7000019140F64060C2F2000040F20042C4F20B
:102F80000002026047224260816044F61F62C26014
:102F9000016180218161FEF789FC18B1FFE7FDF72F
:102FA000F1F9FFE74FF480500A9040F64060C2F21A
:102FB00000000AA9FEF77EFD18B1FFE7FDF7E2F970
:102FC000FFE740F64060C2F20000FFF71DF818B1BD
:102FD000FFE7FDF7D7F9FFE700200890099040F6DA
:102FE0004060C2F2000008A9FEF7F2FB18B1FFE74B
:102FF000FDF7C8F9FFE760200190002202920392DA
:10300000059240F64060C2F2000001A9FEF75AFFA7
:1030100018B1FFE7FDF7B6F9FFE740F64060C2F2EE
:103020000000FEF71BFF0EB080BD000080B582B02F
:1030300040F68860C2F20000019043F60001C4F23D
:10304000010101604FF4E131416000218160C16004
:1030500001610C2242618161C161FFF771FC18B10D
:10306000FFE7FDF78FF9FFE702B080BD80B582B0C2
:1030700040F6D060C2F20000019044F20041C4F278
:10308000000101604FF41651416000218160C16070
:1030900001610C2242618161C161FFF751FC18B1ED
:1030A000FFE7FDF76FF9FFE702B080BD80B582B0A2
:1030B00040F61870C2F20000019044F60001C4F21C
:1030C000000101604FF41651416000218160C16030
:1030D00001610C2242618161C161FFF731FC18B1CD
:1030E000FFE7FDF74FF9FFE702B080BDFFE7FEE71E
:1030F000FFE7FEE788B0079006910592079800F079
:10310000070004900498C0F10700052803D3FFE7E7
:103110000420019004E00498C0F107000190FFE74B
:103120000198039004980430062803D8FFE7002094
:10313000009003E0049803380090FFE700980290A5
:1031400006980399012202FA01F101390840029B15
:10315000984005999A40013A1140084308B07047D9
:103160007047000082B00190019840F20001C2F265
:1031700000010968C90844F6D352C1F26202A1FBFA
:103180000221890948430090FFE700BFFFE700984C
:10319000411E00910028F8D1FFE702B070470000FF
:1031A0007047000080B582B0009000980138B0F1FF
:1031B000807F03D3FFE70120019019E000980138D8
:1031C0004EF21401CEF2000108604FF0FF300F21E3
:1031D00001F0E0F94EF21801CEF200010020086083
:1031E0004EF21002CEF20002072111600190FFE7BB
:1031F000019802B080BD000080B5FDF72FFD80BDB5
:1032000080B590B006A800902821FCF7F5FF009843
:1032100000230593049303930293019301220692E2
:103220004FF48031079108930A9202220D920E9179
:103230004FF4E0110F91FDF77DFF18B1FFE7FDF7A7
:10324000A1F8FFE70F2001900221029100200390D6
:103250004FF480620492059001A8FDF7B7FD18B104
:10326000FFE7FDF78FF8FFE710B080BD7047000063
:1032700080B540F6F850C2F20000FEF7E1FC80BDD8
:1032800080B540F6F850C2F20000FEF7D9FC80BDD0
:1032900080B540F6F850C2F20000FEF7D1FC80BDC8
:1032A00080B540F6F850C2F20000FEF7C9FC80BDC0
:1032B00083B002900191029800680090029842F653
:1032C0000041C4F20101884215D0FFE70298B0F135
:1032D000804F10D0FFE7029840F20041C4F2000195
:1032E000884208D0FFE7029840F60001C4F20001CE
:1032F00088420AD1FFE7009820F070000090019802
:103300004168009808430090FFE7029842F60041A8
:10331000C4F20101884215D0FFE70298B0F1804F56
:1033200010D0FFE7029840F20041C4F20001884249
:1033300008D0FFE7029840F60001C4F2000188427D
:103340000AD1FFE7009820F4407000900198C1680E
:10335000009808430090FFE7009820F08000019952
:1033600049690843009000980299086001988068B4
:103370000299C8620198006802998862029842F630
:103380000041C4F20101884205D1FFE701980069BC
:1033900002990863FFE702990120486102980069D9
:1033A000C00730B1FFE70299086920F00100086109
:1033B000FFE703B07047000084B0039002910192D0
:1033C000029800F01F01012088400090009A0399A4
:1033D000086A904308620198029901F01F0100FAFF
:1033E00001F20399086A1043086204B070470000B4
:1033F00085B0049003910292019304988068009034
:10340000009820F47F40009003980299019A41EAC5
:1034100002210143009808430090009804998860B5
:1034200005B0704783B002900191029880680090C7
:10343000009820F07000009001980099084340F037
:103440000700009000980299886003B07047000060
:1034500082B0019000910198006842F60041C4F2E8
:103460000101884209D1FFE7019840F28C01C2F2C4
:10347000000108600098486035E001980068B0F1EC
:10348000804F09D1FFE7019840F29401C2F2000198
:1034900008600098486025E00198006840F200410B
:1034A000C4F20001884209D1FFE7019840F29C0173
:1034B000C2F2000108600098486012E001980068BC
:1034C00040F60001C4F20001884209D1FFE70198EB
:1034D00040F2A401C2F20001086000984860FFE7D2
:1034E000FFE7FFE7FFE702B07047000085B00490F8
:1034F00003910498006A01900499086A20F0010081
:1035000008620498406800900498806902900298CC
:1035100020F070000290029820F0030002900398BF
:103520000168029808430290019820F0020001907F
:1035300003988168019808430190049842F600417D
:10354000C4F2010188420ED1FFE7019820F0080083
:1035500001900398C168019808430190019820F0F8
:1035600004000190FFE7049842F60041C4F2010113
:10357000884213D1FFE7009820F4807000900098F3
:1035800020F400700090039841690098084300906F
:1035900003988169009808430090FFE70098049918
:1035A00048600298049988610398406804994863C8
:1035B00001980499086205B07047000085B0049036
:1035C00003910498006A01900499086A20F01000A1
:1035D00008620498406800900498806902900298FC
:1035E00020F4E0400290029820F44070029003988A
:1035F0000168029840EA01200290019820F0200022
:10360000019003988168019840EA011001900498A4
:1036100042F60041C4F2010188420FD1FFE7019850
:1036200020F0800001900398C168019840EA0110E1
:103630000190019820F040000190FFE7049842F6C5
:103640000041C4F20101884215D1FFE7009820F43F
:1036500080600090009820F4006000900398416919
:10366000009840EA8100009003988169009840EA40
:1036700081000090FFE7009804994860029804993F
:1036800088610398406804998863019804990862E6
:1036900005B0704785B0049003910498006A0190CA
:1036A0000499086A20F480700862049840680090C9
:1036B0000498C0690290029820F07000029002986D
:1036C00020F00300029003980168029808430290DA
:1036D000019820F40070019003988168019840EAF5
:1036E00001200190049842F60041C4F20101884291
:1036F0000FD1FFE7019820F4006001900398C168A2
:10370000019840EA01200190019820F48060019026
:10371000FFE7049842F60041C4F20101884215D146
:10372000FFE7009820F480500090009820F40050AB
:10373000009003984169009840EA011000900398B6
:103740008169009840EA01100090FFE70098049911
:10375000486002980499C861039840680499C86356
:1037600001980499086205B07047000085B0049084
:1037700003910498006A01900499086A20F480502B
:1037800008620498406800900498C069029002980A
:1037900020F4E0400290029820F4407002900398D8
:1037A0000168029840EA01200290019820F400503C
:1037B000019003988168019840EA013001900498D3
:1037C00042F60041C4F2010188420BD1FFE70098A4
:1037D00020F48040009003984169009840EA8110ED
:1037E0000090FFE700980499486002980499C86126
:1037F000039840680499086401980499086205B028
:103800007047000085B00490039102920498006A0A
:1038100000900499086A20F0010008620498806909
:103820000190019820F0F00001900299019840EA7F
:1038300001100190009820F00A0000900399009870
:1038400008430090019804998861009804990862DF
:1038500005B0704785B00490039102920498006A05
:1038600000900499086A20F01000086204988069AA
:103870000190019820F4704001900299019840EA6B
:1038800001300190009820F0A0000090039900986A
:1038900040EA011000900198049988610098049909
:1038A000086205B07047000080B582B040F6F8505D
:1038B000C2F20000019044F28D31C0F60001FFF722
:1038C000C7FD40F68860C2F2000043F60511C0F65D
:1038D0000001382200F024FA40F6D060C2F2000065
:1038E00043F65D21C0F60001132200F019FA019899
:1038F000FEF788F840F27000C2F2000000F0E0FD30
:1039000002B080BD80B590B00F90ADF83A100020A5
:103910008DF811000F989DF81110405C552828D1A2
:10392000FFE70F999DF8110008444078552820D1F1
:10393000FFE70F999DF8110008448078012818D1FD
:10394000FFE700208DF81100FFE79DF81100272800
:103950000EDCFFE70F989DF81120805C0DF112013D
:103960008854FFE79DF8110001308DF81100ECE755
:10397000FFE79DF816109DF81700000200B20844FA
:1039800001F018F84FF08E41019100F001FF002185
:10399000C4F23431009101F08DF840F27001C2F2AE
:1039A0000001039108609DF818109DF819000002AD
:1039B00000B2084400F0FEFF019900F0E9FE009912
:1039C00001F078F8039948609DF81A109DF81B00E3
:1039D000000200B2084400F0EDFF019900F0D8FEAB
:1039E000009901F067F8039988609DF834109DF8FC
:1039F0003500000200B2084400F0DCFF019900F03D
:103A0000C7FE0021C4F2FA41029101F053F8039974
:103A1000C8609DF836109DF83700000200B20844D7
:103A200000F0C8FF019900F0B3FE029901F042F8DE
:103A3000039908619DF838109DF83900000200B222
:103A4000084400F0B7FF019900F0A2FE029901F0CE
:103A500031F80399486110B080BD000082B0019038
:103A6000ADF8021002B0704780B582B001900198A5
:103A7000406A009000990020C8850099C884009889
:103A8000FEF744FD02B080BD80B584B003900020F5
:103A900002900398406A0190019800684069C0B2A2
:103AA000C0090290019890F8410021280AD1FFE74F
:103AB000029838B1FFE701990020C884019800F00E
:103AC00013F9FFE7019800684069C0F38010029085
:103AD000019890F8420022280AD1FFE7029838B1F5
:103AE000FFE701990020C885019800F09FF8FFE7E3
:103AF0000199486C40F0100048640198FEF706FDFB
:103B000004B080BD80B586B005900598406A0490E9
:103B1000059800680068800600285AD4FFE70499D9
:103B20000020C885FFE7FFE70498006850E8030F0E
:103B300020F480700390FFE703990498026842E83C
:103B400003100028F0D1FFE7FFE7FFE7FFE7049845
:103B5000006850E8050F20F001000290FFE702998D
:103B60000498026842E805100028F0D1FFE7FFE75B
:103B7000FFE7FFE70498006850E8050F20F04000D9
:103B80000190FFE701990498026842E805100028B7
:103B9000F0D1FFE7FFE70499202081F84200049864
:103BA000006B012814D1FFE7FFE7FFE704980068E6
:103BB00050E8030F20F010000090FFE700990498F0
:103BC000026842E803100028F0D1FFE7FFE7FFE7B3
:103BD000FFE70499002048630498006B012805D191
:103BE000FFE70498818DFEF7BBFB03E00498FFF725
:103BF000D1F8FFE706B080BD80B582B00190019892
:103C0000406A00900099012048630098006B0128E9
:103C100006D1FFE70098818D4908FEF7A1FB03E07C
:103C20000098FFF7DDF8FFE702B080BD84B0039095
:103C3000FFE7FFE70398006850E8030F20F4907057
:103C40000290FFE702990398026842E803100028F7
:103C5000F0D1FFE7FFE7FFE7FFE70398006850E8D0
:103C6000050F20F001000190FFE701990398026819
:103C700042E805100028F0D1FFE7FFE70398006B4A
:103C8000012814D1FFE7FFE7FFE70398006850E839
:103C9000030F20F010000090FFE7009903980268DE
:103CA00042E803100028F0D1FFE7FFE7FFE70399A0
:103CB000202081F8420003990020086304B0704777
:103CC00080B582B0019001980168C86820F040007A
:103CD000C8600199202081F841000198FFF784F81D
:103CE000002002B080BD000082B00190FFE7FFE736
:103CF0000198006850E8030F20F0C0000090FFE733
:103D000000990198026842E803100028F0D1FFE70B
:103D1000FFE70199202081F8410002B070470000C0
:103D200080B584B003900291ADF806200398006836
:103D300043F60001C4F2010188421DD1FFE7039858
:103D400040F2AC01C2F2000108600298C1F80C0414
:103D5000BDF80600A1F8040440F68860C2F2000035
:103D60000368DA6842F01002DA60B1F8042401F561
:103D70000171FEF7B7FF4DE00398006844F200417F
:103D8000C4F2000188421DD1FFE7039840F2BC4114
:103D9000C2F2000108600298C1F80C04BDF80600E8
:103DA000A1F8040440F6D060C2F200000368DA68AB
:103DB00042F01002DA60B1F8042401F50171FEF757
:103DC00091FF26E00398006844F60001C4F2000168
:103DD00088421DD1FFE7039840F6CC01C2F20001F2
:103DE00008600298C1F80C04BDF80600A1F80404AC
:103DF00040F61870C2F200000368DA6842F0100260
:103E0000DA60B1F8042401F50171FEF76BFFFFE7FA
:103E1000FFE7FFE704B080BD80B586B0049004984A
:103E200090F84200222840F0A480FFE704988068C0
:103E3000B0F5805F15D1FFE70498006988B9FFE706
:103E4000002003900498806A0290049800684068FB
:103E50006FF35F20029908800499886A02308862B3
:103E600025E00498806A03900020029004988068FE
:103E7000B0F5805F08D0FFE70498806850B9FFE78D
:103E80000498006930B9FFE7049800684068039916
:103E9000087007E004980068406800F07F0003990C
:103EA0000870FFE70499886A01308862FFE7049987
:103EB000C88D0138C8850004002856D1FFE7049852
:103EC0000168C86820F02000C86004980168C868CC
:103ED00020F48070C86004980168486920F00100EF
:103EE00048610499202081F8420004990020486329
:103EF0000498006B012830D1FFE704990020086383
:103F0000FFE7FFE70498006850E8030F20F0100077
:103F10000190FFE701990498026842E80310002825
:103F2000F0D1FFE7FFE7049800680068C0060028AA
:103F30000ED5FFE7FFE700200090049800680068B6
:103F4000009004980068406800900098FFE7FFE741
:103F50000498818DFEF704FA03E00498FEF71AFF37
:103F6000FFE700208DF8170007E000208DF817000C
:103F700003E002208DF81700FFE79DF8170006B058
:103F800080BD000080B584B003900398006800698C
:103F900020F44050039A1168D268104308610399D5
:103FA00088680A69496910430843029003980068C9
:103FB000C06841F20C61884302990843039909687B
:103FC000C86003980068406920F44070039A116843
:103FD0009269104348610398006843F60001C4F2F7
:103FE0000101884204D1FFE7FDF734F8019003E0B6
:103FF000FDF71EF80190FFE7019819214843039A45
:10400000116852689200B0FBF2FC48F21F52C5F2F0
:10401000EB12ACFB02304309642003FB10CC3220CE
:1040200000EB0C10A0FB0202F02000EA521000EBA3
:104030000310C2F343121044886004B080BD000036
:1040400080B588B007900691ADF8162006980799BC
:104050008862BDF816000799888507990020486492
:10406000079A222182F842100799CA6B43F605315C
:10407000C0F6000191620799CA6B43F6F931C0F6A8
:104080000001D1620799CA6B43F68921C0F600018D
:1040900011630799C96B486306A8049007980168E3
:1040A000C06B0431049A1268BDF81630FCF7DAFBD5
:1040B000FFE70020039007980068006803900798C6
:1040C0000068406803900398FFE707980069A0B173
:1040D000FFE7FFE7FFE70798006850E8030F40F4A9
:1040E00080700290FFE702990798026842E8031087
:1040F0000028F0D1FFE7FFE7FFE7FFE7FFE70798BA
:10410000006850E8050F40F001000190FFE70199B9
:104110000798026842E805100028F0D1FFE7FFE7A2
:10412000FFE7FFE70798006850E8050F40F0400000
:104130000090FFE700990798026842E80510002800
:10414000F0D1FFE7FFE7002008B080BD83B0029008
:104150000191ADF80220019802998862BDF8020031
:1041600002998885BDF802000299C885029900204D
:1041700048640299222081F842000298006938B10F
:10418000FFE702980168C86840F48070C860FFE7E4
:1041900002980168486940F001004861029801688E
:1041A000C86840F02000C860002003B070470000DD
:1041B00083B00190019890F8410021283AD1FFE79F
:1041C00001988068B0F5805F13D1FFE7019800691E
:1041D00078B9FFE70198006A0090009800886FF3B3
:1041E0005F200199096848600199086A02300862F5
:1041F00008E0019A106A411C11620078019909686F
:104200004860FFE70199C88C0138C884000468B988
:10421000FFE701980168C86820F08000C860019835
:104220000168C86840F04000C860FFE700208DF8D2
:104230000B0003E002208DF80B00FFE79DF80B0058
:1042400003B0704780B586B040F68860C2F20000C7
:104250000490FEF75FF904980068006800F0100110
:104260000020B0EB111F2AD0FFE7FFE700200590E8
:1042700040F68860C2F20000016809680591006894
:10428000406805900598FFE740F68860C2F200009C
:104290000290FEF7D5F840F2AC00C2F200000190A7
:1042A000B0F8041400F501700390FFF72BFB019A9E
:1042B00002980399B2F80424FEF714FDFFE706B054
:1042C00080BD000080B586B040F6D060C2F200002C
:1042D0000490FEF71FF904980068006800F01001D0
:1042E0000020B0EB111F2AD0FFE7FFE70020059068
:1042F00040F6D060C2F200000168096805910068CC
:10430000406805900598FFE740F6D060C2F20000D3
:104310000290FEF795F840F2BC40C2F20000019016
:10432000B0F8041400F501700390FFF7EBFA019A5E
:1043300002980399B2F80424FEF7D4FCFFE706B014
:1043400080BD0000FFE7FEE780B500F063F980BDA7
:1043500080B584B00390029101920398006802999D
:1043600000F0F5F920B9FFE70298039908600BE027
:1043700003980068019900F0F1F920B9FFE701986E
:1043800003990860FFE7FFE704B080BD80B540F205
:104390007000C2F2000000F01FF880BD80B582B04E
:1043A000019001A800210022C4F287320092FFF799
:1043B000CFFF0099019800F0EBF90021C4F2FA4117
:1043C00000F078FB0021C4F2FA3100F049F900F066
:1043D000D5FA02B080BD000080B584B0039040F6ED
:1043E000DC40C2F2000001780131017000780B2836
:1043F00014DBFFE740F6E040C2F200000068FFF780
:10440000CDFF40F64061C2F200010968486340F602
:10441000DC41C2F2000100200870FFE740F688602E
:10442000C2F20000406C98B1FFE740F68860C2F22B
:1044300000000290FEF704F8029840F2AC01C2F2CC
:104440000001B1F8042401F50171FDF72DFF35E0FD
:1044500040F6D060C2F20000406C98B1FFE740F631
:10446000D060C2F200000190FDF7EAFF019840F22F
:10447000BC41C2F20001B1F8042401F50171FDF75D
:1044800013FF1AE040F61870C2F20000406C98B1B9
:10449000FFE740F61870C2F200000090FDF7D0FF71
:1044A000009840F6CC01C2F20001B1F8042401F5F5
:1044B0000171FDF7F9FEFFE7FFE7FFE704B080BDFC
:1044C00080B582B00190019840F61871C2F20001E7
:1044D00000F00AF840F64060C2F200000021FDF74B
:1044E000E9FD02B080BD000083B002900191029806
:1044F0000090019840F68861C2F20001884207D11D
:10450000FFE7009940F2AC00C2F2000088611FE0B2
:10451000019840F6D061C2F20001884207D1FFE75E
:10452000009940F2BC40C2F2000088610FE001989F
:1045300040F61871C2F20001884207D1FFE70099E6
:1045400040F6CC00C2F200008861FFE7FFE7FFE71A
:1045500003B0704781B08DF803009DF90300002877
:104560000ED4FFE79DF9031001F01F0201209040D7
:104570004A094EF20011CEF2000141F82200FFE795
:1045800001B070474EF60C50CEF200000068C0F348
:104590000220704782B08DF8070000919DF9070056
:1045A00000280AD4FFE7009800019DF907104EF299
:1045B0000042CEF2000288540BE0009800019DF802
:1045C000071001F00F014EF61452CEF2000288548B
:1045D000FFE702B07047000083B00290029800F03D
:1045E000070000904EF60C51CEF2000108680190D1
:1045F00001984FF6FF02104001900198009A40EA9E
:1046000002200022C0F2FA52104301900198086083
:1046100003B0704741F20400CEF20000006840F69B
:10462000E441C2F2000108607047000080B582B02A
:1046300000200190FCF720FBFEF7E2FDFEF712FCE4
:10464000FEF7D8FBFEF73EFCFEF7F0FCFEF70EFD92
:10465000FEF72CFDFEF77CFCFFF726F9FFE7FEE7EF
:1046600090EA010F48BF81F0004100F1F682421A42
:104670003CBF801A89184FEAD052A2EBD1534FF0B9
:104680007F4C1CEA410F18BF9CEA026F00F03B8090
:104690004FF0004C4CEA00204CEA012121FA03FCC7
:1046A00010EB0C0C1ED202F1FF325FEA1C2040EB33
:1046B000C25038BF70471CF07F0F4FEA400C18BF44
:1046C000BCF17F4F38BF7047C3F12003994008BF4A
:1046D00020F00100BCF17F4F38BF7047A0F1C0400F
:1046E00000F0AFBA4FEA3C00000A40EBC25028BFCE
:1046F0001CF0FF0F4FEA400CE6D018BFBCF17F4F13
:1047000038BF7047EAE79CEA026F05D010EA5C0FF9
:1047100008BF00F00040704710B500F04CFA00BF31
:1047200064FBBE3E10B500F0F5F80CBF0120002080
:1047300010BD10B500F0EEF814BF0120002010BD30
:1047400010B500F04FF98CBF0120002010BD10B54E
:1047500000F048F92CBF0120002010BD10B500F07A
:1047600075F994BF0120002010BD10B500F06EF95E
:1047700034BF0120002010BD401058BFC0F14040A0
:10478000491058BFC1F140418142EFF300807047AA
:104790004FF47F0C1CEAD0121EBF1CEAD11392EA20
:1047A0000C0F93EA0C0F00F0858090EA010F48BFD0
:1047B00042F4807240F4000C41F400002CF07F4180
:1047C00020F07F4000B5A2EB030281420FF2081CEB
:1047D000ACEB504E9EF800E0C0F100004FEA4E0EE8
:1047E00000FB0EFC38BF49004FEA2C1C0CFB0EF3FB
:1047F0004FEACE1E0EEB635E4FEA112C0EFB0CFC53
:104800004FEAC1214FEA1C5300FB031102F5FA02E3
:104810004FEA112C0EFB0CFC4FEA01314FEADC4C45
:1048200000FB0C1142EB2242C14228BF09184CEB9D
:1048300003335DF804EB10EB410143EBC250B2F5DA
:104840007C0F38BF704729D512F0F00F1CBF00F164
:10485000C04000F0004070470081828384858687D5
:1048600088898B8C8D8E8F919293959697999A9C2F
:104870009D9FA0A2A3A5A7A8AAACAEB0B2B3B5B79E
:10488000B9BCBEC0C2C5C7C9CCCED1D4D7D9DCDF74
:10489000E2E6E9ECF0F3F7FAFE0000004FEA400C24
:1048A0000CF1807CBCF17E4F28BF7047B0F1C04056
:1048B00000F0C7B90CEAD11390EA010F48BF42F4E7
:1048C0008072624538BF634507D213F47F0F16D05C
:1048D00080EA010000F00040704710B500F06BF96D
:1048E000097EFC3E00F005B880EA010000F00040BF
:1048F000704780EA010000F0004000F0A2B912F415
:104900007F0F04BF0248704780EA010000F099B9A8
:104910000000C07F50EA010C00F113801CF5000F6D
:1049200058BFBCF5000F01D48842704707D710F577
:10493000000F58BF11F5000F15D488427047894207
:1049400070471CF5000F04D5BCF5000FF7D5814268
:1049500070474FF0807C1CEB400F38BF1CEB410FC1
:1049600001D28142704710B500F025F99224490028
:104970004FF000504FF08051FFF7FEBE41000B0E8C
:10498000D3F19E0208D950F400034FEA032323FA1F
:1049900002F048BF4042704710B500F00CF900BF6C
:1049A00049922480002070476FF0004282EA200084
:1049B0007047000010F0004148BF4042B0FA80F359
:1049C00010FA03F2C3F19D030BD051EAC35101EB7E
:1049D0001220530638BF704700F1010008BF20F0D5
:1049E0000100704750EA010C00F113801CF5000F24
:1049F00058BFBCF5000F01D48842704707D710F5A7
:104A0000000F58BF11F5000F15D488427047894236
:104A100070471CF5000F04D5BCF5000FF7D5814297
:104A200070474FF0807C1CEB400F38BF1CEB410FF0
:104A300001D28142704710B500F0BDF892244900C0
:104A40004FF080504FF00051FFF796BE50EA010C36
:104A500000F113801CF5000F58BFBCF5000F01D406
:104A60008842704707D710F5000F58BF11F5000FA7
:104A700015D488427047894270471CF5000F04D551
:104A8000BCF5000FF7D5814270474FF0807C1CEBDE
:104A9000400F38BF1CEB410F01D28142704710B567
:104AA00000F089F8922449004FF000504FF08051F7
:104AB000FFF762BE4FF47F0C1CEAD0121EBF1CEA47
:104AC000D11392EA0C0F93EA0C0F00F0478090EAA2
:104AD000010F48BF42F480724FF0004C4CEA0020B6
:104AE0004CEA012102EB0302A0FB0113A2F5000234
:104AF000002918BF43F001035B0028BF4FEA3303CE
:104B000042EB22425FEA132C4CEBC2502EBFBCEBAF
:104B1000436FB2F57C0F70474FEA036CBCF1004F56
:104B200008BF20F00100B2F57C0F38BF70470BD5ED
:104B300082F0FF0212F5803FC8BF704700F1C0400D
:104B4000D8BF00F00040704700F5000C5FEA4C0C45
:104B500048BF7047B0F1C04000F073B80CEAD11301
:104B600090EA010F48BF42F48072624538BF634546
:104B700004D280EA010000F00040704710B500F058
:104B80001AF800BF8900013E00F007B800F009B82C
:104B90005FEA410C5FEA1C6C08D080EA010000F07B
:104BA00050B85FEA400C5FEA1C6CF6D14FF0004051
:104BB000A0F5800070470EF1020E2EF0030E5EF895
:104BC000044B244204D44FEA4102B2F17F4F11D882
:104BD0004FEA4003B3F17F4F0CD80ED14FEAD07C9F
:104BE0000CEB4C0C0CF1020CB2F17F4F08BF4CEBFC
:104BF000D17C04E04FF0080C01E04FEAD17C0CEBD3
:104C00004C0324FA03F404F00704B4F1040C06D2B4
:104C10000EEB840CBDE810404CF0010C6047DFE85F
:104C20000CF0070802024FF00040A0F5800010BD14
:104C30000846420018BFD2F1807288BF00F00040E1
:104C400010BDFF2141EAD050C005704790EA010F26
:104C500048BF81F000413FF50AAD421A04D882F006
:104C60000042A0EB020011444FEAD052A2EBD15314
:104C70004FF07F4C1CEA410F18BF9CEA026F4AD0EC
:104C80004FF0004C4CEA00204CEA012121FA03FCD1
:104C9000B0EB0C0C0FD412F0FE0F36D05FEA4C00D4
:104CA0001DD5001240EBC25038BF70471CF03F0FBB
:104CB00018BF70470BE05FEA1C20A2F1010240EB35
:104CC000C25038BF70471CF07F0F18BF7047C3F148
:104CD0002003994014BF401E20F0010070474FEAA6
:104CE0001223800808BF7047B0FA80FCA2EB0C02C8
:104CF000CCF1280C60FA0CF093EA122F04BF00EB01
:104D0000C25070474FEAC3707047130A5FEADC1065
:104D100008BF7047F6E79CEA026F04D010EA5C0F08
:104D200008BF0020704710B5FFF745FF40DFF63E93
:104D300081F0004070470000000000000000010208
:104D4000030406070809000000000102030402032F
:104D50000405060708090A0B0C0D0E0F10100102BE
:104D6000884D0008000000201000000050010008DD
:104D7000984D000810000020581500007001000830
:104D8000C9F5FFFF0000000000127A0001000000DA
:084D900010000000000000000B
:04000005080000ED02
:00000001FF
